{
  "contractName": "TakeShareContract",
  "abi": [
    {
      "inputs": [],
      "payable": false,
      "stateMutability": "nonpayable",
      "type": "constructor"
    },
    {
      "anonymous": false,
      "inputs": [
        {
          "indexed": true,
          "internalType": "uint256",
          "name": "_gameNumber",
          "type": "uint256"
        },
        {
          "indexed": false,
          "internalType": "uint256",
          "name": "_amount",
          "type": "uint256"
        },
        {
          "indexed": false,
          "internalType": "string",
          "name": "_reason",
          "type": "string"
        }
      ],
      "name": "ContractEarnings",
      "type": "event"
    },
    {
      "anonymous": false,
      "inputs": [
        {
          "indexed": true,
          "internalType": "uint256",
          "name": "_gameNumber",
          "type": "uint256"
        },
        {
          "indexed": true,
          "internalType": "address",
          "name": "_player",
          "type": "address"
        },
        {
          "indexed": false,
          "internalType": "bytes32",
          "name": "_encryptedChoice",
          "type": "bytes32"
        },
        {
          "indexed": false,
          "internalType": "uint256",
          "name": "_actualChoice",
          "type": "uint256"
        },
        {
          "indexed": false,
          "internalType": "bytes32",
          "name": "_encryptedActualChoice",
          "type": "bytes32"
        }
      ],
      "name": "Disqualified",
      "type": "event"
    },
    {
      "anonymous": false,
      "inputs": [
        {
          "indexed": false,
          "internalType": "uint256",
          "name": "_oldFees",
          "type": "uint256"
        },
        {
          "indexed": false,
          "internalType": "uint256",
          "name": "_newFees",
          "type": "uint256"
        },
        {
          "indexed": false,
          "internalType": "uint256",
          "name": "_oldMinBet",
          "type": "uint256"
        },
        {
          "indexed": false,
          "internalType": "uint256",
          "name": "_newMinBet",
          "type": "uint256"
        },
        {
          "indexed": false,
          "internalType": "uint256",
          "name": "_oldMaxBet",
          "type": "uint256"
        },
        {
          "indexed": false,
          "internalType": "uint256",
          "name": "_newMaxBet",
          "type": "uint256"
        },
        {
          "indexed": false,
          "internalType": "uint256",
          "name": "_oldStageTimeout",
          "type": "uint256"
        },
        {
          "indexed": false,
          "internalType": "uint256",
          "name": "_newStageTimeout",
          "type": "uint256"
        }
      ],
      "name": "NewGameRules",
      "type": "event"
    },
    {
      "anonymous": false,
      "inputs": [
        {
          "indexed": false,
          "internalType": "uint256",
          "name": "_n1",
          "type": "uint256"
        },
        {
          "indexed": false,
          "internalType": "uint256",
          "name": "_n2",
          "type": "uint256"
        },
        {
          "indexed": false,
          "internalType": "uint256",
          "name": "_n3",
          "type": "uint256"
        },
        {
          "indexed": false,
          "internalType": "uint256",
          "name": "_d",
          "type": "uint256"
        }
      ],
      "name": "NewRewardMatrix",
      "type": "event"
    },
    {
      "anonymous": false,
      "inputs": [
        {
          "indexed": false,
          "internalType": "uint256",
          "name": "_oldK",
          "type": "uint256"
        },
        {
          "indexed": false,
          "internalType": "uint256",
          "name": "_k",
          "type": "uint256"
        }
      ],
      "name": "NewRewardPercentage",
      "type": "event"
    },
    {
      "anonymous": false,
      "inputs": [
        {
          "indexed": true,
          "internalType": "uint256",
          "name": "_gameNumber",
          "type": "uint256"
        }
      ],
      "name": "RegisterationClosed",
      "type": "event"
    },
    {
      "anonymous": false,
      "inputs": [
        {
          "indexed": true,
          "internalType": "uint256",
          "name": "_gameNumber",
          "type": "uint256"
        }
      ],
      "name": "RegisterationOpened",
      "type": "event"
    },
    {
      "anonymous": false,
      "inputs": [
        {
          "indexed": true,
          "internalType": "uint256",
          "name": "_gameNumber",
          "type": "uint256"
        }
      ],
      "name": "RevealStart",
      "type": "event"
    },
    {
      "anonymous": false,
      "inputs": [
        {
          "indexed": true,
          "internalType": "uint256",
          "name": "_gameNumber",
          "type": "uint256"
        }
      ],
      "name": "RevealStop",
      "type": "event"
    },
    {
      "anonymous": false,
      "inputs": [
        {
          "indexed": true,
          "internalType": "address",
          "name": "_player",
          "type": "address"
        }
      ],
      "name": "Suspended",
      "type": "event"
    },
    {
      "anonymous": false,
      "inputs": [
        {
          "indexed": true,
          "internalType": "uint256",
          "name": "_gameNumber",
          "type": "uint256"
        },
        {
          "indexed": false,
          "internalType": "address",
          "name": "_to",
          "type": "address"
        },
        {
          "indexed": false,
          "internalType": "uint256",
          "name": "_amount",
          "type": "uint256"
        }
      ],
      "name": "Transferred",
      "type": "event"
    },
    {
      "anonymous": false,
      "inputs": [
        {
          "indexed": true,
          "internalType": "address",
          "name": "_player",
          "type": "address"
        }
      ],
      "name": "UnSuspended",
      "type": "event"
    },
    {
      "constant": false,
      "inputs": [],
      "name": "fund",
      "outputs": [],
      "payable": true,
      "stateMutability": "payable",
      "type": "function"
    },
    {
      "constant": false,
      "inputs": [
        {
          "internalType": "address",
          "name": "_to",
          "type": "address"
        }
      ],
      "name": "changeOwner",
      "outputs": [],
      "payable": false,
      "stateMutability": "nonpayable",
      "type": "function"
    },
    {
      "constant": false,
      "inputs": [
        {
          "internalType": "address",
          "name": "_player",
          "type": "address"
        }
      ],
      "name": "suspend",
      "outputs": [
        {
          "internalType": "bool",
          "name": "_suspended",
          "type": "bool"
        }
      ],
      "payable": false,
      "stateMutability": "nonpayable",
      "type": "function"
    },
    {
      "constant": false,
      "inputs": [
        {
          "internalType": "address",
          "name": "_player",
          "type": "address"
        }
      ],
      "name": "unSuspend",
      "outputs": [
        {
          "internalType": "bool",
          "name": "_unSuspended",
          "type": "bool"
        }
      ],
      "payable": false,
      "stateMutability": "nonpayable",
      "type": "function"
    },
    {
      "constant": false,
      "inputs": [
        {
          "internalType": "uint256",
          "name": "_k",
          "type": "uint256"
        }
      ],
      "name": "setRewardPercentageK",
      "outputs": [],
      "payable": false,
      "stateMutability": "nonpayable",
      "type": "function"
    },
    {
      "constant": false,
      "inputs": [
        {
          "internalType": "uint256",
          "name": "_fees",
          "type": "uint256"
        },
        {
          "internalType": "uint256",
          "name": "_minBet",
          "type": "uint256"
        },
        {
          "internalType": "uint256",
          "name": "_maxBet",
          "type": "uint256"
        },
        {
          "internalType": "uint256",
          "name": "_stageTimeout",
          "type": "uint256"
        }
      ],
      "name": "setGameRules",
      "outputs": [],
      "payable": false,
      "stateMutability": "nonpayable",
      "type": "function"
    },
    {
      "constant": true,
      "inputs": [],
      "name": "getOwner",
      "outputs": [
        {
          "internalType": "address",
          "name": "_owner",
          "type": "address"
        }
      ],
      "payable": false,
      "stateMutability": "view",
      "type": "function"
    },
    {
      "constant": true,
      "inputs": [],
      "name": "getContractBalance",
      "outputs": [
        {
          "internalType": "uint256",
          "name": "_balance",
          "type": "uint256"
        }
      ],
      "payable": false,
      "stateMutability": "view",
      "type": "function"
    },
    {
      "constant": true,
      "inputs": [],
      "name": "getContractEarnings",
      "outputs": [
        {
          "internalType": "uint256",
          "name": "_earnings",
          "type": "uint256"
        }
      ],
      "payable": false,
      "stateMutability": "view",
      "type": "function"
    },
    {
      "constant": true,
      "inputs": [],
      "name": "getRewardMatrix",
      "outputs": [
        {
          "internalType": "uint256",
          "name": "_k",
          "type": "uint256"
        }
      ],
      "payable": false,
      "stateMutability": "view",
      "type": "function"
    },
    {
      "constant": false,
      "inputs": [
        {
          "internalType": "uint256",
          "name": "_betAmount",
          "type": "uint256"
        },
        {
          "internalType": "bytes32",
          "name": "_encryptedChoice",
          "type": "bytes32"
        }
      ],
      "name": "startGame",
      "outputs": [
        {
          "internalType": "uint256",
          "name": "_gameNumber",
          "type": "uint256"
        }
      ],
      "payable": true,
      "stateMutability": "payable",
      "type": "function"
    },
    {
      "constant": false,
      "inputs": [
        {
          "internalType": "uint256",
          "name": "_gameNumber",
          "type": "uint256"
        },
        {
          "internalType": "uint256",
          "name": "_betAmount",
          "type": "uint256"
        },
        {
          "internalType": "bytes32",
          "name": "_encryptedChoice",
          "type": "bytes32"
        }
      ],
      "name": "joinGame",
      "outputs": [],
      "payable": true,
      "stateMutability": "payable",
      "type": "function"
    },
    {
      "constant": false,
      "inputs": [
        {
          "internalType": "uint256",
          "name": "_gameNumber",
          "type": "uint256"
        },
        {
          "internalType": "uint256",
          "name": "_choice",
          "type": "uint256"
        }
      ],
      "name": "reveal",
      "outputs": [],
      "payable": false,
      "stateMutability": "nonpayable",
      "type": "function"
    },
    {
      "constant": false,
      "inputs": [
        {
          "internalType": "uint256",
          "name": "gameNumber",
          "type": "uint256"
        }
      ],
      "name": "claimRewardK",
      "outputs": [
        {
          "internalType": "bool",
          "name": "_claimedReward",
          "type": "bool"
        }
      ],
      "payable": false,
      "stateMutability": "nonpayable",
      "type": "function"
    }
  ],
  "bytecode": "0x60806040526000600455655af3107a400060055567016345785d8a0000600655674563918244f4000060075562093a80600855601960095534801561004357600080fd5b50336000806101000a81548173ffffffffffffffffffffffffffffffffffffffff021916908373ffffffffffffffffffffffffffffffffffffffff160217905550613116806100936000396000f3fe6080604052600436106100dd5760003560e01c8063b138d8381161007f578063cace7bd311610059578063cace7bd314610361578063d8be2838146103b4578063ee42c2d91461041d578063f263448514610448576100dd565b8063b138d838146102e0578063b60d42881461030b578063bfb51ac914610315576100dd565b806377faba66116100bb57806377faba66146101b8578063893d20e8146101f35780639348cef71461024a578063a6f9dae11461028f576100dd565b8063286781c7146100e25780635b99cb2b1461014b5780636f9fb98a1461018d575b600080fd5b3480156100ee57600080fd5b506101316004803603602081101561010557600080fd5b81019080803573ffffffffffffffffffffffffffffffffffffffff1690602001909291905050506104a1565b604051808215151515815260200191505060405180910390f35b61018b6004803603606081101561016157600080fd5b81019080803590602001909291908035906020019092919080359060200190929190505050610604565b005b34801561019957600080fd5b506101a2610b25565b6040518082815260200191505060405180910390f35b3480156101c457600080fd5b506101f1600480360360208110156101db57600080fd5b8101908080359060200190929190505050610b2d565b005b3480156101ff57600080fd5b50610208610b93565b604051808273ffffffffffffffffffffffffffffffffffffffff1673ffffffffffffffffffffffffffffffffffffffff16815260200191505060405180910390f35b34801561025657600080fd5b5061028d6004803603604081101561026d57600080fd5b810190808035906020019092919080359060200190929190505050610bbc565b005b34801561029b57600080fd5b506102de600480360360208110156102b257600080fd5b81019080803573ffffffffffffffffffffffffffffffffffffffff169060200190929190505050611309565b005b3480156102ec57600080fd5b506102f5611393565b6040518082815260200191505060405180910390f35b61031361139d565b005b61034b6004803603604081101561032b57600080fd5b8101908080359060200190929190803590602001909291905050506113aa565b6040518082815260200191505060405180910390f35b34801561036d57600080fd5b5061039a6004803603602081101561038457600080fd5b81019080803590602001909291905050506117de565b604051808215151515815260200191505060405180910390f35b3480156103c057600080fd5b50610403600480360360208110156103d757600080fd5b81019080803573ffffffffffffffffffffffffffffffffffffffff169060200190929190505050612bef565b604051808215151515815260200191505060405180910390f35b34801561042957600080fd5b50610432612cf8565b6040518082815260200191505060405180910390f35b34801561045457600080fd5b5061049f6004803603608081101561046b57600080fd5b8101908080359060200190929190803590602001909291908035906020019092919080359060200190929190505050612d02565b005b60008060009054906101000a905050600160008373ffffffffffffffffffffffffffffffffffffffff1673ffffffffffffffffffffffffffffffffffffffff16815260200190815260200160002060009054906101000a900460ff161561050757600080fd5b6000809054906101000a900473ffffffffffffffffffffffffffffffffffffffff1673ffffffffffffffffffffffffffffffffffffffff168273ffffffffffffffffffffffffffffffffffffffff16141561056157600080fd5b60018060008473ffffffffffffffffffffffffffffffffffffffff1673ffffffffffffffffffffffffffffffffffffffff16815260200190815260200160002060006101000a81548160ff0219169083151502179055508173ffffffffffffffffffffffffffffffffffffffff167f6f123d3d54c84a7960a573b31c221dcd86e13fd849c5adb0c6ca851468cc1ae460405160405180910390a260019050919050565b818034111561061257600080fd5b83600a80549050101561062457600080fd5b6000600a600186038154811061063657fe5b9060005260206000209060100201905060003390508160080160009054906101000a9050508073ffffffffffffffffffffffffffffffffffffffff168260030160009054906101000a90505050600160008273ffffffffffffffffffffffffffffffffffffffff1673ffffffffffffffffffffffffffffffffffffffff16815260200190815260200160002060009054906101000a900460ff16156106da57600080fd5b6007548511156106e957600080fd5b600073ffffffffffffffffffffffffffffffffffffffff168260040160009054906101000a900473ffffffffffffffffffffffffffffffffffffffff1673ffffffffffffffffffffffffffffffffffffffff161461074657600080fd5b808260040160006101000a81548173ffffffffffffffffffffffffffffffffffffffff021916908373ffffffffffffffffffffffffffffffffffffffff160217905550600182600a0160008373ffffffffffffffffffffffffffffffffffffffff1673ffffffffffffffffffffffffffffffffffffffff16815260200190815260200160002060006101000a81548160ff0219169083151502179055506040518060600160405280858152602001868152602001600081525082600b0160008373ffffffffffffffffffffffffffffffffffffffff1673ffffffffffffffffffffffffffffffffffffffff16815260200190815260200160002060008201518160000155602082015181600101556040820151816002015590505060008260080160006101000a81548160ff02191690831515021790555060018260080160016101000a81548160ff0219169083151502179055504282600101819055504282600201819055508160040160009054906101000a900473ffffffffffffffffffffffffffffffffffffffff168260090160008460030160009054906101000a900473ffffffffffffffffffffffffffffffffffffffff1673ffffffffffffffffffffffffffffffffffffffff1673ffffffffffffffffffffffffffffffffffffffff16815260200190815260200160002060006101000a81548173ffffffffffffffffffffffffffffffffffffffff021916908373ffffffffffffffffffffffffffffffffffffffff1602179055508160030160009054906101000a900473ffffffffffffffffffffffffffffffffffffffff168260090160008460040160009054906101000a900473ffffffffffffffffffffffffffffffffffffffff1673ffffffffffffffffffffffffffffffffffffffff1673ffffffffffffffffffffffffffffffffffffffff16815260200190815260200160002060006101000a81548173ffffffffffffffffffffffffffffffffffffffff021916908373ffffffffffffffffffffffffffffffffffffffff1602179055506001600360008373ffffffffffffffffffffffffffffffffffffffff1673ffffffffffffffffffffffffffffffffffffffff1681526020019081526020016000205401600360008373ffffffffffffffffffffffffffffffffffffffff1673ffffffffffffffffffffffffffffffffffffffff16815260200190815260200160002081905550857feb29b8c11b5d601808b9533d3e4a3cd5b2fce63a026c49327fd0bde1047c463560405160405180910390a2857f88b2d7ee1f8bedd022f28b93794a275dfeddc38d619b6e7f01e6fb5d4d5b48d560405160405180910390a2505050505050565b600047905090565b6000809054906101000a9050506064811115610b4857600080fd5b7f15acc69e083ac651d25243792560b71a5b2aa225df4548db2a3cf55de1bf1e2e60095482604051808381526020018281526020019250505060405180910390a18060098190555050565b60008060009054906101000a900473ffffffffffffffffffffffffffffffffffffffff16905090565b81600a805490501015610bce57600080fd5b6000600a6001840381548110610be057fe5b906000526020600020906010020190508060080160019054906101000a9050506000339050600160008273ffffffffffffffffffffffffffffffffffffffff1673ffffffffffffffffffffffffffffffffffffffff16815260200190815260200160002060009054906101000a900460ff1615610c5c57600080fd5b81600a0160008273ffffffffffffffffffffffffffffffffffffffff1673ffffffffffffffffffffffffffffffffffffffff16815260200190815260200160002060009054906101000a900460ff16610cb457600080fd5b81600c0160008273ffffffffffffffffffffffffffffffffffffffff1673ffffffffffffffffffffffffffffffffffffffff16815260200190815260200160002060009054906101000a905050600182600c0160008373ffffffffffffffffffffffffffffffffffffffff1673ffffffffffffffffffffffffffffffffffffffff16815260200190815260200160002060006101000a81548160ff0219169083151502179055508282600b0160008373ffffffffffffffffffffffffffffffffffffffff1673ffffffffffffffffffffffffffffffffffffffff16815260200190815260200160002060020181905550600082600b0160008373ffffffffffffffffffffffffffffffffffffffff1673ffffffffffffffffffffffffffffffffffffffff1681526020019081526020016000206000015490506000846040516020018082815260200191505060405160208183030381529060405280519060200120905081811461119d57600184600d0160008573ffffffffffffffffffffffffffffffffffffffff1673ffffffffffffffffffffffffffffffffffffffff16815260200190815260200160002060006101000a81548160ff021916908315150217905550600184600e0160008573ffffffffffffffffffffffffffffffffffffffff1673ffffffffffffffffffffffffffffffffffffffff16815260200190815260200160002060006101000a81548160ff021916908315150217905550600084600f0160008573ffffffffffffffffffffffffffffffffffffffff1673ffffffffffffffffffffffffffffffffffffffff1681526020019081526020016000208190555083600d0160008560090160008673ffffffffffffffffffffffffffffffffffffffff1673ffffffffffffffffffffffffffffffffffffffff16815260200190815260200160002060009054906101000a900473ffffffffffffffffffffffffffffffffffffffff1673ffffffffffffffffffffffffffffffffffffffff1673ffffffffffffffffffffffffffffffffffffffff16815260200190815260200160002060009054906101000a900460ff161561113d57600084600b0160008660090160008773ffffffffffffffffffffffffffffffffffffffff1673ffffffffffffffffffffffffffffffffffffffff16815260200190815260200160002060009054906101000a900473ffffffffffffffffffffffffffffffffffffffff1673ffffffffffffffffffffffffffffffffffffffff1673ffffffffffffffffffffffffffffffffffffffff1681526020019081526020016000206001015485600b0160008673ffffffffffffffffffffffffffffffffffffffff1673ffffffffffffffffffffffffffffffffffffffff168152602001908152602001600020600101540190508060045401600481905550867f591335385a6b2ae17850e0f977f7e6f680b33515e10b3770a171d6ba6c749169826040518082815260200180602001828103825260118152602001807f424f54485f4449535155414c49464945440000000000000000000000000000008152506020019250505060405180910390a2505b8273ffffffffffffffffffffffffffffffffffffffff16867f08df2f19cd2f4721207c143b8e65091f8342bd0dfd55c947e39106e2731f3de684888560405180848152602001838152602001828152602001935050505060405180910390a35b83600c0160008560030160009054906101000a900473ffffffffffffffffffffffffffffffffffffffff1673ffffffffffffffffffffffffffffffffffffffff1673ffffffffffffffffffffffffffffffffffffffff16815260200190815260200160002060009054906101000a900460ff16801561128b575083600c0160008560040160009054906101000a900473ffffffffffffffffffffffffffffffffffffffff1673ffffffffffffffffffffffffffffffffffffffff1673ffffffffffffffffffffffffffffffffffffffff16815260200190815260200160002060009054906101000a900460ff165b156113015760008460080160016101000a81548160ff02191690831515021790555060018460080160026101000a81548160ff021916908315150217905550428460020181905550857fcf4007e52489dc526f9a505e0b3b4cae34c6ec940f7966e8316b1274e70e2ed260405160405180910390a25b505050505050565b6000809054906101000a905050600073ffffffffffffffffffffffffffffffffffffffff168173ffffffffffffffffffffffffffffffffffffffff16141561135057600080fd5b806000806101000a81548173ffffffffffffffffffffffffffffffffffffffff021916908373ffffffffffffffffffffffffffffffffffffffff16021790555050565b6000600454905090565b3460045401600481905550565b600082803411156113ba57600080fd5b6000339050600160008273ffffffffffffffffffffffffffffffffffffffff1673ffffffffffffffffffffffffffffffffffffffff16815260200190815260200160002060009054906101000a900460ff161561141657600080fd5b60075485111561142557600080fd5b61142d613055565b6040518061016001604052804281526020014281526020014281526020018373ffffffffffffffffffffffffffffffffffffffff168152602001600073ffffffffffffffffffffffffffffffffffffffff168152602001600554815260200160095481526020016008548152602001600115158152602001600015158152602001600015158152509050600a819080600181540180825580915050906001820390600052602060002090601002016000909192909190915060008201518160000155602082015181600101556040820151816002015560608201518160030160006101000a81548173ffffffffffffffffffffffffffffffffffffffff021916908373ffffffffffffffffffffffffffffffffffffffff16021790555060808201518160040160006101000a81548173ffffffffffffffffffffffffffffffffffffffff021916908373ffffffffffffffffffffffffffffffffffffffff16021790555060a0820151816005015560c0820151816006015560e082015181600701556101008201518160080160006101000a81548160ff0219169083151502179055506101208201518160080160016101000a81548160ff0219169083151502179055506101408201518160080160026101000a81548160ff0219169083151502179055505050506000600a6001600a80549050038154811061162c57fe5b90600052602060002090601002019050600181600a0160008573ffffffffffffffffffffffffffffffffffffffff1673ffffffffffffffffffffffffffffffffffffffff16815260200190815260200160002060006101000a81548160ff0219169083151502179055506040518060600160405280878152602001888152602001600081525081600b0160008573ffffffffffffffffffffffffffffffffffffffff1673ffffffffffffffffffffffffffffffffffffffff1681526020019081526020016000206000820151816000015560208201518160010155604082015181600201559050506001600260008573ffffffffffffffffffffffffffffffffffffffff1673ffffffffffffffffffffffffffffffffffffffff1681526020019081526020016000205401600260008573ffffffffffffffffffffffffffffffffffffffff1673ffffffffffffffffffffffffffffffffffffffff16815260200190815260200160002081905550600a805490507fffe59794e969a0d35c082e3ff4de07a91f2024088f51624c5b856a970e94752160405160405180910390a2600a8054905094505050505092915050565b600081600a8054905010156117f257600080fd5b6000600a600184038154811061180457fe5b906000526020600020906010020190506000339050600160008273ffffffffffffffffffffffffffffffffffffffff1673ffffffffffffffffffffffffffffffffffffffff16815260200190815260200160002060009054906101000a900460ff161561187057600080fd5b81600e0160008273ffffffffffffffffffffffffffffffffffffffff1673ffffffffffffffffffffffffffffffffffffffff16815260200190815260200160002060009054906101000a9050506000600a60018603815481106118cf57fe5b90600052602060002090601002016005015490508260080160009054906101000a900460ff1615611b1257600183600e0160008473ffffffffffffffffffffffffffffffffffffffff1673ffffffffffffffffffffffffffffffffffffffff16815260200190815260200160002060006101000a81548160ff02191690831515021790555060008360080160006101000a81548160ff02191690831515021790555060018360080160026101000a81548160ff02191690831515021790555082600701548360000154014211156119a557600090505b8083600b0160008473ffffffffffffffffffffffffffffffffffffffff1673ffffffffffffffffffffffffffffffffffffffff168152602001908152602001600020600101540383600f0160008473ffffffffffffffffffffffffffffffffffffffff1673ffffffffffffffffffffffffffffffffffffffff168152602001908152602001600020819055506000811115611ab7578060045401600481905550847f591335385a6b2ae17850e0f977f7e6f680b33515e10b3770a171d6ba6c7491698260405180828152602001806020018281038252600e8152602001807f47414d455f4142414e444f4e45440000000000000000000000000000000000008152506020019250505060405180910390a25b611b06858385600b0160008673ffffffffffffffffffffffffffffffffffffffff1673ffffffffffffffffffffffffffffffffffffffff16815260200190815260200160002060010154612dd3565b60019350505050612bea565b8260080160029054906101000a900460ff16611b2d57600080fd5b82600d0160008373ffffffffffffffffffffffffffffffffffffffff1673ffffffffffffffffffffffffffffffffffffffff16815260200190815260200160002060009054906101000a90505082600a0160008373ffffffffffffffffffffffffffffffffffffffff1673ffffffffffffffffffffffffffffffffffffffff16815260200190815260200160002060009054906101000a900460ff16611bd257600080fd5b82600c0160008373ffffffffffffffffffffffffffffffffffffffff1673ffffffffffffffffffffffffffffffffffffffff16815260200190815260200160002060009054906101000a900460ff16611c2a57600080fd5b82600e0160008373ffffffffffffffffffffffffffffffffffffffff1673ffffffffffffffffffffffffffffffffffffffff16815260200190815260200160002060009054906101000a905050600183600e0160008473ffffffffffffffffffffffffffffffffffffffff1673ffffffffffffffffffffffffffffffffffffffff16815260200190815260200160002060006101000a81548160ff02191690831515021790555060008360090160008473ffffffffffffffffffffffffffffffffffffffff1673ffffffffffffffffffffffffffffffffffffffff16815260200190815260200160002060009054906101000a900473ffffffffffffffffffffffffffffffffffffffff16905060008090506000809050600086600b0160008573ffffffffffffffffffffffffffffffffffffffff1673ffffffffffffffffffffffffffffffffffffffff1681526020019081526020016000206001015487600b0160008873ffffffffffffffffffffffffffffffffffffffff1673ffffffffffffffffffffffffffffffffffffffff1681526020019081526020016000206001015401905086600d0160008573ffffffffffffffffffffffffffffffffffffffff1673ffffffffffffffffffffffffffffffffffffffff16815260200190815260200160002060009054906101000a900460ff1615611ff457606487600b0160008873ffffffffffffffffffffffffffffffffffffffff1673ffffffffffffffffffffffffffffffffffffffff1681526020019081526020016000206001015488600601546064010281611e7b57fe5b049150808210611e8b5780611e8d565b815b925084830387600f0160008873ffffffffffffffffffffffffffffffffffffffff1673ffffffffffffffffffffffffffffffffffffffff1681526020019081526020016000208190555086600f0160008773ffffffffffffffffffffffffffffffffffffffff1673ffffffffffffffffffffffffffffffffffffffff16815260200190815260200160002054810360045401600481905550887f591335385a6b2ae17850e0f977f7e6f680b33515e10b3770a171d6ba6c74916988600f0160008973ffffffffffffffffffffffffffffffffffffffff1673ffffffffffffffffffffffffffffffffffffffff1681526020019081526020016000205483036040518082815260200180602001828103825260158152602001807f4f50504f4e454e545f4449535155414c494649454400000000000000000000008152506020019250505060405180910390a2611fe4898785612dd3565b6001975050505050505050612bea565b61204187600b0160008873ffffffffffffffffffffffffffffffffffffffff1673ffffffffffffffffffffffffffffffffffffffff16815260200190815260200160002060020154613037565b158015612098575061209687600b0160008673ffffffffffffffffffffffffffffffffffffffff1673ffffffffffffffffffffffffffffffffffffffff16815260200190815260200160002060020154613037565b155b156122f457600287600b0160008673ffffffffffffffffffffffffffffffffffffffff1673ffffffffffffffffffffffffffffffffffffffff1681526020019081526020016000206001015488600b0160008973ffffffffffffffffffffffffffffffffffffffff1673ffffffffffffffffffffffffffffffffffffffff16815260200190815260200160002060010154018161213157fe5b04925084830387600f0160008873ffffffffffffffffffffffffffffffffffffffff1673ffffffffffffffffffffffffffffffffffffffff1681526020019081526020016000208190555086600e0160008573ffffffffffffffffffffffffffffffffffffffff1673ffffffffffffffffffffffffffffffffffffffff16815260200190815260200160002060009054906101000a900460ff16156122d957600087600f0160008673ffffffffffffffffffffffffffffffffffffffff1673ffffffffffffffffffffffffffffffffffffffff1681526020019081526020016000205488600f0160008973ffffffffffffffffffffffffffffffffffffffff1673ffffffffffffffffffffffffffffffffffffffff1681526020019081526020016000205483030390508060045401600481905550897f591335385a6b2ae17850e0f977f7e6f680b33515e10b3770a171d6ba6c7491698260405180828152602001806020018281038252600b8152602001807f53484152455f53484152450000000000000000000000000000000000000000008152506020019250505060405180910390a2505b6122e4898785612dd3565b6001975050505050505050612bea565b61234187600b0160008873ffffffffffffffffffffffffffffffffffffffff1673ffffffffffffffffffffffffffffffffffffffff16815260200190815260200160002060020154613037565b158015612397575061239687600b0160008673ffffffffffffffffffffffffffffffffffffffff1673ffffffffffffffffffffffffffffffffffffffff16815260200190815260200160002060020154613037565b5b1561255057600087600f0160008873ffffffffffffffffffffffffffffffffffffffff1673ffffffffffffffffffffffffffffffffffffffff1681526020019081526020016000208190555086600e0160008573ffffffffffffffffffffffffffffffffffffffff1673ffffffffffffffffffffffffffffffffffffffff16815260200190815260200160002060009054906101000a900460ff161561254057600087600f0160008673ffffffffffffffffffffffffffffffffffffffff1673ffffffffffffffffffffffffffffffffffffffff1681526020019081526020016000205488600f0160008973ffffffffffffffffffffffffffffffffffffffff1673ffffffffffffffffffffffffffffffffffffffff1681526020019081526020016000205483030390508060045401600481905550897f591335385a6b2ae17850e0f977f7e6f680b33515e10b3770a171d6ba6c7491698260405180828152602001806020018281038252600a8152602001807f53484152455f54414b45000000000000000000000000000000000000000000008152506020019250505060405180910390a2505b6001975050505050505050612bea565b61259d87600b0160008873ffffffffffffffffffffffffffffffffffffffff1673ffffffffffffffffffffffffffffffffffffffff16815260200190815260200160002060020154613037565b80156125f357506125f187600b0160008673ffffffffffffffffffffffffffffffffffffffff1673ffffffffffffffffffffffffffffffffffffffff16815260200190815260200160002060020154613037565b155b1561282357606487600b0160008873ffffffffffffffffffffffffffffffffffffffff1673ffffffffffffffffffffffffffffffffffffffff168152602001908152602001600020600101548860060154606401028161264f57fe5b04915080821061265f5780612661565b815b925084830387600f0160008873ffffffffffffffffffffffffffffffffffffffff1673ffffffffffffffffffffffffffffffffffffffff1681526020019081526020016000208190555086600e0160008573ffffffffffffffffffffffffffffffffffffffff1673ffffffffffffffffffffffffffffffffffffffff16815260200190815260200160002060009054906101000a900460ff161561280857600087600f0160008673ffffffffffffffffffffffffffffffffffffffff1673ffffffffffffffffffffffffffffffffffffffff1681526020019081526020016000205488600f0160008973ffffffffffffffffffffffffffffffffffffffff1673ffffffffffffffffffffffffffffffffffffffff1681526020019081526020016000205483030390508060045401600481905550897f591335385a6b2ae17850e0f977f7e6f680b33515e10b3770a171d6ba6c7491698260405180828152602001806020018281038252600a8152602001807f54414b455f5348415245000000000000000000000000000000000000000000008152506020019250505060405180910390a2505b612813898785612dd3565b6001975050505050505050612bea565b61287087600b0160008873ffffffffffffffffffffffffffffffffffffffff1673ffffffffffffffffffffffffffffffffffffffff16815260200190815260200160002060020154613037565b80156128c557506128c487600b0160008673ffffffffffffffffffffffffffffffffffffffff1673ffffffffffffffffffffffffffffffffffffffff16815260200190815260200160002060020154613037565b5b15612be2576000925086600b0160008573ffffffffffffffffffffffffffffffffffffffff1673ffffffffffffffffffffffffffffffffffffffff1681526020019081526020016000206001015487600b0160008873ffffffffffffffffffffffffffffffffffffffff1673ffffffffffffffffffffffffffffffffffffffff168152602001908152602001600020600101541115612a09576064600288600b0160008773ffffffffffffffffffffffffffffffffffffffff1673ffffffffffffffffffffffffffffffffffffffff1681526020019081526020016000206001015489600b0160008a73ffffffffffffffffffffffffffffffffffffffff1673ffffffffffffffffffffffffffffffffffffffff1681526020019081526020016000206001015403896006015460640302816129fd57fe5b0481612a0557fe5b0492505b6000831115612a6a57848311612a20576000612a24565b8483035b87600f0160008873ffffffffffffffffffffffffffffffffffffffff1673ffffffffffffffffffffffffffffffffffffffff168152602001908152602001600020819055505b86600e0160008573ffffffffffffffffffffffffffffffffffffffff1673ffffffffffffffffffffffffffffffffffffffff16815260200190815260200160002060009054906101000a900460ff1615612bc757600087600f0160008673ffffffffffffffffffffffffffffffffffffffff1673ffffffffffffffffffffffffffffffffffffffff1681526020019081526020016000205488600f0160008973ffffffffffffffffffffffffffffffffffffffff1673ffffffffffffffffffffffffffffffffffffffff1681526020019081526020016000205483030390508060045401600481905550897f591335385a6b2ae17850e0f977f7e6f680b33515e10b3770a171d6ba6c749169826040518082815260200180602001828103825260098152602001807f54414b455f54414b4500000000000000000000000000000000000000000000008152506020019250505060405180910390a2505b612bd2898785612dd3565b6001975050505050505050612bea565b505050505050505b919050565b60008060009054906101000a905050600160008373ffffffffffffffffffffffffffffffffffffffff1673ffffffffffffffffffffffffffffffffffffffff16815260200190815260200160002060009054906101000a900460ff16612c5457600080fd5b6000600160008473ffffffffffffffffffffffffffffffffffffffff1673ffffffffffffffffffffffffffffffffffffffff16815260200190815260200160002060006101000a81548160ff0219169083151502179055508173ffffffffffffffffffffffffffffffffffffffff167f349b4285cb8dde314c53fd9d8e8e578381a7375e4f76f9dd9fe07f9960f120a460405160405180910390a260019050919050565b6000600954905090565b6000809054906101000a90505062093a80811015612d1f57600080fd5b826064850210612d2e57600080fd5b818310612d3a57600080fd5b7fcea15c3ee30fe8af98bc5713036ed5594eb5de39a5d6b3b050cfed142d76a00b60055485600654866007548760085488604051808981526020018881526020018781526020018681526020018581526020018481526020018381526020018281526020019850505050505050505060405180910390a18360058190555082600681905550816007819055508060088190555050505050565b600160008373ffffffffffffffffffffffffffffffffffffffff1673ffffffffffffffffffffffffffffffffffffffff16815260200190815260200160002060009054906101000a900460ff1615612e2a57600080fd5b600073ffffffffffffffffffffffffffffffffffffffff168273ffffffffffffffffffffffffffffffffffffffff161415612e6457600080fd5b600a6001840381548110612e7457fe5b906000526020600020906010020160050154811115613032576000600a6001850381548110612e9f57fe5b9060005260206000209060100201600501548203905080471015612ec257600080fd5b60008373ffffffffffffffffffffffffffffffffffffffff168260405180807f2000000000000000000000000000000000000000000000000000000000000000815250600101905060006040518083038185875af1925050503d8060008114612f47576040519150601f19603f3d011682016040523d82523d6000602084013e612f4c565b606091505b5050905080612fc3576040517f08c379a00000000000000000000000000000000000000000000000000000000081526004018080602001828103825260108152602001807f5472616e73666572206661696c65642e0000000000000000000000000000000081525060200191505060405180910390fd5b847fb34d4539a6d4489f4f5bba338e04ed7b691e9ac32a25b992080584523f990c4b8584604051808373ffffffffffffffffffffffffffffffffffffffff1673ffffffffffffffffffffffffffffffffffffffff1681526020018281526020019250505060405180910390a250505b505050565b6000806002838161304457fe5b049050826002820214915050919050565b604051806101600160405280600081526020016000815260200160008152602001600073ffffffffffffffffffffffffffffffffffffffff168152602001600073ffffffffffffffffffffffffffffffffffffffff168152602001600081526020016000815260200160008152602001600015158152602001600015158152602001600015158152509056fea265627a7a72315820a1dcf3b3d2719bc08968f40aa594c6b881d60127f5a30cdaf14b22bba1174a8564736f6c63430005100032",
  "source": "pragma solidity ^0.5.1;\n\ncontract owned { \n    address owner;\n    modifier onlyOwner()\n    {\n        msg.sender == owner;\n        _;\n    }\n}\n\ncontract priced {\n    modifier costs(uint256 price) {\n        require(msg.value <= price);\n        _;\n    }\n}\n\ncontract TakeShareContract is owned, priced {\n\n    uint constant TAKE = 0;\n    uint constant SHARE = 1;\n    mapping(address=>bool) suspended;\n    mapping(address=>uint) totalGamesStarted;\n    mapping(address=>uint) totalGamesParticipated;   \n    uint256 contractEarnings = 0;\n    uint256 REGISTRATION_COST = 10**14;// 0.0001 Ether //Editable by Owner\n    uint256 MINIMUM_COST_OF_BET = 10**17;// 0.1 Ether //Editable by Owner\n    uint256 MAXIMUM_COST_OF_BET = 5 * 10**18;//5 Ether //Editable by Owner\n    uint256 STAGE_TIMEOUT = 60*60*24*7;//1 Week\n\n    uint256 K = 25; //Editable by Owner\n\n    event RegisterationOpened(uint indexed _gameNumber);\n    event RegisterationClosed(uint indexed _gameNumber);\n    event RevealStart(uint indexed _gameNumber);\n    event RevealStop(uint indexed _gameNumber);\n    event Transferred(uint indexed _gameNumber,address _to, uint256 _amount);\n    event ContractEarnings(uint indexed _gameNumber, uint256 _amount, string _reason);\n    event Disqualified(uint indexed _gameNumber, address indexed _player, bytes32 _encryptedChoice, uint _actualChoice, bytes32 _encryptedActualChoice);\n    event NewGameRules(uint _oldFees, uint _newFees, uint _oldMinBet, uint _newMinBet, uint _oldMaxBet, uint _newMaxBet, uint _oldStageTimeout, uint _newStageTimeout);\n    event NewRewardMatrix(uint _n1, uint _n2, uint _n3, uint _d);\n    event NewRewardPercentage(uint256 _oldK, uint256 _k);\n    event Suspended(address indexed _player);\n    event UnSuspended(address indexed _player);\n\n    struct Bet {\n        bytes32 encryptedChoice;\n        uint256 betAmount;\n        uint actualChoice;\n    }\n\n    struct Game {\n        uint startTime;\n        uint revealTime;\n        uint finishTime;\n        address player1; \n        address player2;\n        uint256 registrationCost;\n        uint256 k;\n        uint stageTimeout;\n        bool registerationOpen;\n        bool revealing;\n        bool lastGameFinished;\n        mapping(address=>address) opponent;\n        mapping(address=>bool) registered;\n        mapping(address=>Bet) bets;\n        mapping(address=>bool) revealed;\n        mapping(address=>bool) disqualified;\n        mapping(address=>bool) claimedReward;\n        mapping(address=>uint256) reward;\n    }\n    \n    Game[] games;\n\n    constructor() public {\n        owner = msg.sender;\n    }   \n\n    function fund() payable external {\n        contractEarnings = contractEarnings + msg.value;\n    }\n\n    // UTILITY METHODS STARTS\n    function isEven(uint num) private pure returns(bool _isEven) {\n        uint halfNum = num / 2;\n        return (halfNum * 2) == num;\n    }\n    // UTILITY METHODS END\n\n    // ADMIN METHODS START\n    function changeOwner(address _to) public onlyOwner {\n        require(_to != address(0));\n        owner = _to;\n    }\n\n    function suspend(address _player) public onlyOwner returns(bool _suspended){\n        require(!suspended[_player]);\n        require(_player != owner);\n        suspended[_player] = true;\n        emit Suspended(_player);\n        return true;\n    }\n\n    function unSuspend(address _player) public onlyOwner returns(bool _unSuspended){\n        require(suspended[_player]);\n        suspended[_player] = false;\n        emit UnSuspended(_player);\n        return true;\n    }\n\n    function setRewardPercentageK(uint256 _k) public onlyOwner {\n        //Max earnings is double.\n        require(_k <= 100);\n        emit NewRewardPercentage(K, _k);\n        K = _k;\n    }\n\n    function setGameRules(uint256 _fees, uint256 _minBet, uint256 _maxBet, uint256 _stageTimeout) public onlyOwner {\n        require(_stageTimeout >= 60*60*24*7);//Owner can't set it to below 1 week\n        require((_fees * 100 ) < _minBet);//Fees will always be less that 1 % of bet\n        require(_minBet < _maxBet);\n        emit NewGameRules(REGISTRATION_COST, _fees, MINIMUM_COST_OF_BET, _minBet, MAXIMUM_COST_OF_BET, _maxBet, STAGE_TIMEOUT, _stageTimeout);\n        REGISTRATION_COST = _fees;\n        MINIMUM_COST_OF_BET = _minBet;\n        MAXIMUM_COST_OF_BET = _maxBet;\n        STAGE_TIMEOUT = _stageTimeout;\n    }\n    //ADMIN METHODS ENDS\n\n    //VIEW APIs STARTS\n    function getOwner() public view returns(address _owner) {\n        return owner;\n    }\n\n    function getContractBalance() public view returns(uint256 _balance) {\n        return address(this).balance;\n    }\n\n    function getContractEarnings() public view returns(uint _earnings) {\n        return contractEarnings;\n    }\n\n    function getRewardMatrix() public view returns(uint _k) {\n        return (K);\n    }\n\n    //VIEW APIs ENDS\n\n    //GAME PLAY STARTS\n    function startGame(uint256 _betAmount, bytes32 _encryptedChoice) public payable costs(_betAmount) returns(uint _gameNumber) {\n        address player = msg.sender;\n        require(!suspended[player]);   \n        _betAmount >= MINIMUM_COST_OF_BET;\n        require(_betAmount <= MAXIMUM_COST_OF_BET);\n        Game memory _game = Game(now, now, now, player, address(0), REGISTRATION_COST, K, STAGE_TIMEOUT, true, false, false);  \n        games.push(_game); \n        Game storage game = games[games.length-1]; \n        game.registered[player] = true;\n        game.bets[player] = Bet(_encryptedChoice, _betAmount, 0);                   \n        totalGamesStarted[player] = totalGamesStarted[player] + 1;\n        emit RegisterationOpened(games.length);\n        return games.length;\n    }\n\n    function joinGame(uint _gameNumber, uint256 _betAmount, bytes32 _encryptedChoice) public  payable costs(_betAmount) {\n        require(games.length >= _gameNumber);\n        Game storage game = games[_gameNumber-1];\n        address player = msg.sender;\n        game.registerationOpen; \n        game.player1 != player; // Can also put ```require(game.registered[player]);``` meaning, Same player cannot join the game.\n        require(!suspended[player]);   \n        _betAmount >= MINIMUM_COST_OF_BET;\n        require(_betAmount <= MAXIMUM_COST_OF_BET);\n        require(game.player2 == address(0)); \n        game.player2 = player;\n        game.registered[player] = true;\n        game.bets[player] = Bet(_encryptedChoice, _betAmount, 0);    \n        game.registerationOpen = false;\n        game.revealing = true;  \n        game.revealTime = now; // Set Game Reveal time in order to resolve dead lock if no one claims reward.\n        game.finishTime = now; // If both do not reveal for one week, Admin can immidiately finish game.\n        game.opponent[game.player1] = game.player2;    \n        game.opponent[game.player2] = game.player1;\n        totalGamesParticipated[player] = totalGamesParticipated[player] + 1;\n        emit RegisterationClosed(_gameNumber);\n        emit RevealStart(_gameNumber);\n    }\n\n    function reveal(uint _gameNumber, uint256 _choice) public {\n        require(games.length >= _gameNumber);\n        Game storage game = games[_gameNumber-1];\n        game.revealing;\n        address player = msg.sender;\n        require(!suspended[player]);\n        require(game.registered[player]);\n        !game.revealed[player];\n        game.revealed[player] = true;\n        game.bets[player].actualChoice = _choice;\n        bytes32 encryptedChoice = game.bets[player].encryptedChoice;\n        bytes32 encryptedActualChoice = keccak256(abi.encodePacked(_choice));\n        if( encryptedActualChoice != encryptedChoice) {\n            game.disqualified[player] = true;\n            //Mark them as Claimed Reward so that \n            //contract earnings can be accounted for\n            game.claimedReward[player] = true;\n            game.reward[player] = 0;\n            if (game.disqualified[game.opponent[player]]) {\n                uint256 gameEarnings = game.bets[player].betAmount + game.bets[game.opponent[player]].betAmount;\n                contractEarnings = contractEarnings + gameEarnings;\n                emit ContractEarnings(_gameNumber, gameEarnings, \"BOTH_DISQUALIFIED\");\n            }\n            emit Disqualified(_gameNumber, player, encryptedChoice, _choice, encryptedActualChoice);\n        }\n        if(game.revealed[game.player1] && game.revealed[game.player2]) {\n            game.revealing = false;\n            game.lastGameFinished = true;\n            game.finishTime = now; //Set Game finish time in order to resolve dead lock if no one claims reward.\n            emit RevealStop(_gameNumber);\n        }\n    }\n    //GAME PLAY ENDS\n\n\n    //REWARD WITHDRAW STARTS\n    function ethTransfer(uint gameNumber, address _to, uint256 _amount) private {\n        require(!suspended[_to]);\n        require(_to != address(0));\n        if ( _amount > games[gameNumber-1].registrationCost) {\n            //TAKE game Commission\n            uint256 amount = _amount - games[gameNumber-1].registrationCost;\n            require(address(this).balance >= amount);\n            (bool success, ) = _to.call.value(amount)(\" \");\n\t    require(success, \"Transfer failed.\");\n            emit Transferred(gameNumber, _to, amount);\n        }\n    }\n\n\n    function claimRewardK(uint gameNumber) public returns(bool _claimedReward)  {\n        require(games.length >= gameNumber);\n        Game storage game = games[gameNumber-1];\n        address player = msg.sender;\n        require(!suspended[player]);\n        !game.claimedReward[player];\n        uint commission = games[gameNumber-1].registrationCost;\n        if (game.registerationOpen) {\n            game.claimedReward[player] = true;\n            game.registerationOpen = false;\n            game.lastGameFinished = true;\n            if ( now > (game.startTime + game.stageTimeout)) {\n                //No commision if game was open till stage timeout.\n                commission = 0;\n            }\n            game.reward[player] = game.bets[player].betAmount - commission;\n            if (commission > 0) {\n                contractEarnings = contractEarnings + commission;\n                emit ContractEarnings(gameNumber, commission, \"GAME_ABANDONED\");\n            }\n            //Bet amount can't be less than commission.\n            \n            ethTransfer(gameNumber, player, game.bets[player].betAmount);\n            return true;\n        }\n        require(game.lastGameFinished);\n        !game.disqualified[player];\n        require(game.registered[player]);\n        require(game.revealed[player]);\n        !game.claimedReward[player];\n        game.claimedReward[player] = true;\n        address opponent = game.opponent[player];\n        uint256 reward = 0;\n        uint256 gameReward = 0;\n        uint256 totalBet = (game.bets[player].betAmount + game.bets[opponent].betAmount);\n        if ( game.disqualified[opponent]) {\n            gameReward = ((100 + game.k) * game.bets[player].betAmount) / 100;\n            reward = gameReward < totalBet ? gameReward : totalBet; //Min (X+Y, (100+K)*X/100)\n            game.reward[player] = reward - commission;\n            //Min (X+Y, (100+K)*X/100) can't be less than commision.\n            contractEarnings = contractEarnings + (totalBet - game.reward[player]);\n            emit ContractEarnings(gameNumber, (totalBet - game.reward[player]), \"OPPONENT_DISQUALIFIED\");\n            ethTransfer(gameNumber, player, reward);\n            return true;\n        }\n        if ( !isEven(game.bets[player].actualChoice) && !isEven(game.bets[opponent].actualChoice) ) { // SHARE SHARE\n            reward = (game.bets[player].betAmount + game.bets[opponent].betAmount) / 2;\n            game.reward[player] = reward - commission;\n            //(X+Y)/2 can't be less than commision.\n            if ( game.claimedReward[opponent] ) {\n                uint256 gameEarnings = (totalBet - game.reward[player] - game.reward[opponent]);\n                contractEarnings = contractEarnings + gameEarnings;\n                emit ContractEarnings(gameNumber, gameEarnings, \"SHARE_SHARE\");\n            }\n            ethTransfer(gameNumber, player, reward);\n            return true;\n        }\n        if ( !isEven(game.bets[player].actualChoice) && isEven(game.bets[opponent].actualChoice) ) { // SHARE TAKE\n            game.reward[player] = 0;\n            if ( game.claimedReward[opponent] ) {\n                uint256 gameEarnings = (totalBet - game.reward[player] - game.reward[opponent]);\n                contractEarnings = contractEarnings + gameEarnings;\n                emit ContractEarnings(gameNumber, gameEarnings, \"SHARE_TAKE\");\n            }\n            return true;\n        }\n        if ( isEven(game.bets[player].actualChoice) && !isEven(game.bets[opponent].actualChoice) ) { // TAKE SHARE\n            gameReward = (((100 + game.k) * game.bets[player].betAmount)/100);\n            reward = gameReward < totalBet ? gameReward : totalBet; \n            game.reward[player] = reward - commission;\n            //Min (X+Y, (100+K)*X/100) can't be less than commision.\n            if ( game.claimedReward[opponent] ) {\n                uint256 gameEarnings = (totalBet - game.reward[player] - game.reward[opponent]);\n                contractEarnings = contractEarnings + gameEarnings;\n                emit ContractEarnings(gameNumber, gameEarnings, \"TAKE_SHARE\");\n            }\n            ethTransfer(gameNumber, player, reward);\n            return true;\n        }\n        if ( isEven(game.bets[player].actualChoice) && isEven(game.bets[opponent].actualChoice) ) { // TAKE TAKE\n            reward = 0;\n            if( game.bets[player].betAmount > game.bets[opponent].betAmount) {\n                //((100-K)*(X-Y)/2)/100 will always be less than X+Y so no need for min check on X+Y and reward\n                reward = ((100 - game.k) * (game.bets[player].betAmount - game.bets[opponent].betAmount) / 2) / 100;\n            }\n            if(reward > 0) {\n                //((100-K)*(X-Y)/2)/100 CAN BE LESS THAN COMMISSION.\n                game.reward[player] = reward > commission ? reward - commission : 0;\n            }\n            if ( game.claimedReward[opponent] ) {\n                uint256 gameEarnings = (totalBet - game.reward[player] - game.reward[opponent]);\n                contractEarnings = contractEarnings + gameEarnings;\n                emit ContractEarnings(gameNumber, gameEarnings, \"TAKE_TAKE\");\n            }\n            ethTransfer(gameNumber, player, reward);\n            return true;\n        }\n    }\n    //REWARD WITHDRAW ENDS\n}\n\n",
  "sourcePath": "/Users/moigne/Desktop/repos/Final-Project/src/contracts/TakeShareContract.sol",
  "compiler": {
    "name": "solc",
    "version": "0.5.16+commit.9c3226ce.Emscripten.clang"
  },
  "schemaVersion": "3.1.0",
  "updatedAt": "2020-05-04T00:13:16.376Z",
  "networkType": "ethereum",
  "devdoc": {
    "methods": {}
  },
  "userdoc": {
    "methods": {}
  }
}